:020000040800F2
:10000000E004002005010008A50F0008A10F00086A
:10001000A30F000871010008E111000800000000B2
:10002000000000000000000000000000A90F000810
:100030008D01000800000000A70F0008AB0F0008AA
:100040001F0100081F0100081F0100081F01000810
:100050001F0100081F0100081F0100081F01000800
:100060001F0100081F0100081F0100081F010008F0
:100070001F0100081F010008750100088101000828
:100080001F0100081F0100081F0100081F010008D0
:100090001F0100081F0100081F0100081F010008C0
:1000A0001F0100081F0100081F0100081F010008B0
:1000B0001F0100081F0100081F0100081F010008A0
:1000C0001F0100081F0100081F0100081F01000890
:1000D0001F010008D51100081F0100081F010008BA
:1000E0001F0100081F0100081F010008DFF810D0E1
:1000F00000F02CF8004800476D120008AFF30080B4
:10010000E00400200648804706480047FEE7FEE777
:10011000FEE7FEE7FEE7FEE7FEE7FEE7FEE7FEE7B7
:10012000FF0F0008ED000008D2B201E000F8012B3B
:10013000491EFBD270470022F6E710B513460A4667
:1001400004461946FFF7F0FF204610BD064C074D48
:1001500006E0E06840F0010394E807009847103497
:10016000AC42F6D3FFF7C6FF88130008A8130008B7
:10017000FEE70000014800F059B800009800002098
:10018000014800F053B8000054000020704772B6D8
:10019000FEE7000010B590F821100024022903D0DA
:1001A0000421816301243DE001680A6822F00E0207
:1001B0000A6001680A6822F001020A601A4A0168AE
:1001C000914201D1012121E0174A1432914201D11B
:1001D00010211BE0144A2832914201D1891515E003
:1001E000114A3C32914201D189140FE00E4A50323B
:1001F000914202D14FF4803108E00B4A64329142BF
:1002000002D14FF4801101E04FF08071064A083AA4
:100210005160012180F82110002180F82010416BED
:1002200001B18847204610BD080002402DE9F05F6B
:10023000C16B0C6801680B68D0F840C0042202FA58
:100240000CF2494DDFF824A1494E4A4FDFF828B19E
:10025000DFF828E122422CD05A072AD50A689206F4
:1002600003D40A6822F004020A600168A94201D19D
:10027000042219E0514501D1402215E0B14202D1DA
:100280004FF4806210E0B94202D14FF480420BE09B
:10029000594502D14FF4802206E0714502D14FF456
:1002A000800201E04FF080622F4908394A60C16A3C
:1002B0003BE04FF0020808FA0CF818EA040F4FF080
:1002C00000094FF0010235D05FEA837832D50B6820
:1002D0009B0605D40B6823F00A030B6080F82120ED
:1002E0000168A94201D1022219E0514501D1202221
:1002F00015E0B14202D14FF4007210E0B94202D1D0
:100300004FF400520BE0594502D14FF4003206E0A1
:10031000714502D14FF4001201E04FF00072124912
:1003200008394A6080F82090816A00291AD0BDE817
:10033000F05F0847082505FA0CF5254212D01B0787
:1003400010D50B6823F00E030B6090F84010C36BC0
:1003500002FA01F15960826380F8212080F8209030
:10036000016BE2E7BDE8F09F080002401C0002407C
:100370003000024044000240580002406C0002403D
:1003800030B528B308C8134914221944B1FBF2F15F
:100390008900C16310498163022141771A6843F6DD
:1003A000F0718A43D0E900142143D0E902452C437F
:1003B0002143046921434469214384692143114352
:1003C000196000214163012242770177084630BD60
:1003D000012030BDF8FFFDBF0000024070B50446AB
:1003E00000F004F90546601C02D00448007804447B
:1003F00000F0FCF8401BA042FAD370BD04000020BE
:100400002DE9F84FDFF8B891002409F1040A0AF148
:10041000040B23460F270BF1040EC9E00125A5406C
:100420002A40AA427DD1674ED1F804C0ACEB060841
:10043000B44532D014DCBCF1030F3AD009DCBCF176
:10044000000F2AD0BCF1010F1CD0BCF1020F31D13A
:100450001DE0BCF1110F17D0BCF1120F2AD119E029
:10046000B8F5881F19D006DCB8F5803F15D0B8F56F
:10047000801F1FD111E0B8F5001F0ED0B8F5041F82
:1004800018D10AE0CB6815E0CB681B1D12E0CB68E1
:1004900008330FE0CB680C330CE08B682BB1012BD9
:1004A0004FF0080303D0456104E0042302E0056136
:1004B00000E00023FF2A01D8064601E000F104060F
:1004C0004FEA840501D9A5F12005D6F8008007FA86
:1004D00005FC28EA0C0803FA05F548EA0508C6F801
:1004E00000804D68ED0062D5374DAE6946F00106DB
:1004F000AE61AD6924F0030605F001050095334DAA
:1005000006EB050CDCF80850A607360F07FA06F8CC
:1005100025EA0805DFF8B880404503D14FF0000810
:1005200017E044E0DFF8AC80404502D14FF001080D
:100530000FE0DFF8A480404502D14FF0020808E048
:10054000DFF89880404502D14FF0030801E04FF0FA
:10055000040808FA06F848EA0508CCF808804D684F
:10056000D9F80060ED034D4601D5164300E09643EF
:100570002E604D68DAF80060AD03554601D516438C
:1005800000E096432E604D68DBF80060ED025D46AA
:1005900001D5164300E096432E604D68DEF80060FA
:1005A000AD02754601D5164300E096432E60641CEB
:1005B0000D682A46E5407FF431AFBDE8F88F0000B2
:1005C0000004014000001110001002400000014032
:1005D00000080140000C01400010014000140140DF
:1005E0000AB1016170470904FBE700000148806817
:1005F000704700000400002002488168027811441E
:100600008160704704000020074810B5016841F080
:1006100010010160032000F075F8002000F006F8DA
:1006200000F024F8002010BD0020024070B50D4DF0
:1006300004464FF47A712878B1FBF0F00A49096852
:10064000B1FBF0F000F0ECFA48B9102C07D2002210
:100650002146501E00F036F800206C6070BD01206D
:1006600070BD000004000020100000200C4808B5F8
:10067000816941F001018161816901F0010100910D
:10068000C16941F08051C161C06900F080500090A3
:100690000448416821F0E06141F00071416008BD0B
:1006A0000010024000000140002809DB00F01F029A
:1006B000012191404009800000F1E020C0F80011C4
:1006C00070470000F0B40E4B1B680C46C3F30223C6
:1006D000C3F10705042D00D90425191D072901D2EE
:1006E000002300E0DB1E012606FA05F1491E214029
:1006F00099409E40761E16403143F0BC00F07ABD12
:100700000CED00E0064900F0070208684FF6FF0311
:10071000184040EA0220034A104308607047000076
:100720000CED00E00000FA052DE9F0470F4605004A
:1007300061D0434E306800F00700B84209D23068FB
:1007400020F0070038433060306800F00700B842FE
:1007500051D128683B4C810712D5400703D560680A
:1007600040F4E06060602878000703D5606840F4DA
:10077000605060606068A96820F0F0000843606025
:100780002878C00728D06868012810D0216802287E
:1007900010D0890700292EDA616821F00301014396
:1007A0006160FFF723FF804641F288390DE0216840
:1007B0008903EFE78901EDE7FFF718FFA0EB0801D8
:1007C000494502D90320BDE8F0876068696800F0F8
:1007D0000C00B0EB810FEFD1306800F00700B84299
:1007E0000BD9306820F0070038433060306800F0E3
:1007F0000700B84201D00120E5E72878400705D579
:100800006068E96820F4E0600843606028780007C9
:1008100006D56068296920F4605040EAC100606034
:1008200000F038F86168084AC1F30311515CC84010
:100830000649086006480068FFF7F8FE0020C2E796
:100840000020024000100240701300081000002039
:10085000080000200448054900684968044AC1F3BB
:100860000221515CC8407047100000200010024077
:10087000801300080448054900684968044AC1F328
:10088000C221515CC8407047100000200010024097
:100890008013000812A185B00FC98DE80F0014A0C5
:1008A000144A006804905168134801F00C03042BAB
:1008B00010D0082B0ED1C1F38343C9031DF80300E8
:1008C0000AD5516804AAC1F34041515C0A4A504319
:1008D000B0FBF1F005B0704708494843FAE7000063
:1008E00002030405060708090A0B0C0D0E0F101071
:1008F000010200000010024000127A0000093D00D1
:100900002DE9F84F040070D02078C04DC00749D0C1
:100910006868C0F38100012807D06868C0F38100CF
:10092000022809D16868C00306D52868800339D534
:1009300060680028E7D035E06068B0F5803F0BD0F4
:1009400010B1B0F5A02F11D0286820F480302860B5
:10095000286820F4802002E0286840F48030286075
:10096000606890B1FFF742FE06460AE0286840F44E
:1009700080202860F0E700BFFFF738FE801B642866
:1009800073D828688003F7D50CE0FFF72FFE0646E2
:1009900005E000BFFFF72AFE801B6428F0D8286816
:1009A0008003F7D420789A4E80074FF001094FF06A
:1009B000000839D5686810F00C0F07D06868C0F3DC
:1009C0008100022809D16868C00306D4286880071E
:1009D00014D52069012808D110E02069B0B1C6F80B
:1009E0000090FFF703FE074605E00AE1FFF7FEFD72
:1009F000C01B0228C4D828688007F7D52868616919
:100A000020F0F80040EAC10028600DE0C6F8008040
:100A1000FFF7ECFD074604E0FFF7E8FDC01B0228E6
:100A200023D828688007F7D4207800072CD5794888
:100A3000A169D9B1C0F80090FFF7D8FD074604E0DE
:100A4000FFF7D4FDC01B02280FD8686A8007F7D5CE
:100A500071484FF4FA510068B0FBF1F0009000BF0C
:100A60000098411E0091FAD20EE080E0C0F80080AC
:100A7000FFF7BCFD074604E0FFF7B8FDC01B0228E6
:100A800075D8686A8007F7D42078400760D5E86990
:100A90000027C00008D4E86940F08050E861E869A8
:100AA000012700F0805000905C480168C90513D40C
:100AB0000168834641F480710160FFF797FD82462B
:100AC00006E000BFFFF792FDA0EB0A0064284ED8B5
:100AD000DBF80000C005F5D5E06801280AD008B1B0
:100AE000052813D0286A20F001002862286A20F027
:100AF000040002E0286A40F001002862E06841F248
:100B0000883B98B1FFF772FD82460BE0286A40F0FF
:100B100004002862EEE700BFFFF768FDA0EB0A01C2
:100B200059455AD8286A8007F6D50CE0FFF75EFDD4
:100B3000824605E0FFF75AFDA0EB0A0159454CD863
:100B4000286A8007F6D41FB1E86920F08050E86178
:100B5000E06988B36968C1F38101022944D00228A1
:100B6000C6F8608004D0FFF741FD044638E034E069
:100B7000FFF73CFD074604E0FFF738FDC01B0228E5
:100B80002BD828688001F7D4206AB0F5803F05D1C2
:100B90006868A16820F4003008436860D4E908015F
:100BA0000843696821F4741108436860C6F86090CE
:100BB000FFF71CFD044606E025E000BFFFF716FD29
:100BC000001B022809D828688001F7D51BE000BF68
:100BD000FFF70CFD001B022802D90320BDE8F88FA7
:100BE00028688001F4D40EE00128F7D06868226AF2
:100BF00000F48031914204D1616A00F4701088429F
:100C000001D00120EAE70020E8E7000000100240E0
:100C10000000424280044242100000200070004068
:100C200010B5401EB0F1807F01D3012010BD4FF000
:100C3000E02460610F21601700F0DCFA0020A06161
:100C400007202061002010BD7047000070B50268C9
:100C500004461068D168536910F00F0F52D003F0AA
:100C6000010501F490762E435FD0C20705D0CA0576
:100C700003D5E26B42F00102E263420705D5DA07D1
:100C800003D0E26B42F00202E263820705D5DA0785
:100C900003D0E26B42F00402E263020707D501F0E1
:100CA00020022A4303D0E26B42F00802E263E26BC7
:100CB000002A33D0800604D5880602D5204600F0ED
:100CC000B5F920684069E16BC0F38010090700D4D2
:100CD00028B3204600F09CF92068416949061AD5DE
:100CE000416921F040014161606BA0B12D49416330
:100CF000606BFFF74FFA002810D0606B416BBDE8C6
:100D000070400847830610D58B060ED52046BDE8F7
:100D1000704000F08BB92046FFF796FF70BD20466B
:100D2000FFF792FF0020E06370BD03062BD50B0692
:100D300029D594F839002128F6D1A068B0F5805F54
:100D400001D12069B0B1206A411C2162216800787C
:100D50004860E08C401E0004000CE084E4D1206870
:100D6000C16821F08001C1602068C16841F0400184
:100D7000C16070BD206A0088C0F308005060206A1E
:100D8000801C2062E5E74006F3D54806F1D5D1681E
:100D9000204621F04001D160202184F8391000F074
:100DA000FEF870BD0110000870B5040004D094F87E
:100DB0003900002510B106E0012070BD84F83850DC
:100DC000204600F023F8242084F839002068C16808
:100DD00021F40051C160204600F06EF920680169DD
:100DE00021F4904101612068416921F02A014161AB
:100DF0002068C16841F40051C160E563202084F897
:100E0000390084F83A00002070BD0000F0B585B0CC
:100E100000240646009401940294039400682C492F
:100E2000884252D12B48816941F4804181618169B6
:100E300001F480410491816941F00401816180697C
:100E4000254D00F0040004904FF400700090022043
:100E500001900320039069462846FFF7D1FA281530
:100E6000CDE90004694628460294FFF7C9FA1C4DF3
:100E70001A488027C5E90004C5E902472C616C6166
:100E8000AC612846EC61FFF77BFA08B1FFF77FF908
:100E900075636E621148134D143801C5102091C559
:100EA000104845F810496C61AC61EC61FFF768FAD5
:100EB00008B1FFF76CF935630022114625206E62F8
:100EC000FFF700FC2520FFF7EFFB05B0F0BD0000A9
:100ED0000038014000100240000801405800024064
:100EE0005400002098000020704700002DE9F843CE
:100EF000044690F839001F4616460D4620284CD16E
:100F0000C5B1BEB194F83800012846D0012084F85C
:100F100038004FF00008C4F83C80212084F83900E4
:100F2000FFF764FBA6848146E684A068B0F5805F85
:100F300003D004E00120BDE8F883206928B12E46E3
:100F40005FF0000584F838800EE00026FAE7802183
:100F5000204600F00DF9A0B9AEB116F8010B2168DA
:100F60004860E08C401EE084E08C4B464FF000026D
:100F700000970028EBD14FF04001204600F0F8F830
:100F800030B10320D7E735F8020BC0F30800E6E7DD
:100F9000202084F839000020CDE70220CBE77047FD
:100FA000FEE7FEE7FEE770477047FFF725BB10B589
:100FB00090B028216846FFF7BEF814210AA8FFF771
:100FC000BAF802200090012004901020002405901F
:100FD00007946846FFF794FC08B172B6FEE70F204D
:100FE000CDE90A040C940D9400210AA80E94FFF791
:100FF0009BFB002801D072B6FEE710B010BD704711
:1010000010B5406A0021C185C184FFF71DFE10BDE7
:101010000168CA6822F49072CA6001684A6922F0C5
:1010200001024A61202180F83A10704710B590F80B
:101030003A10222901D0022010BD82684FF480535B
:101040009A4201D1016921B1816A9A421BD04AB109
:101050000AE00268816A5268C2F308020A80816A63
:10106000891C08E0026972B10268526802F07F02CE
:101070000A70816A491C8162C18D491E0904090CEC
:10108000C18503D016E002685268F1E70168CA68BA
:1010900022F02002CA600168CA6822F48072CA6025
:1010A00001684A6922F001024A61202180F83A1061
:1010B000FFF71AFF002010BD70B5044600680169F3
:1010C000E26821F44051114301612169A06808439D
:1010D000616908432168CA6841F20C639A4302437C
:1010E000CA6020684169A26921F4407111434161DD
:1010F0001E492068884202D1FFF7BCFB01E0FFF7E0
:10110000A9FB00EBC00101EB0012606864218000C4
:10111000B2FBF0F3B3FBF1F36FF018067343B2FBCD
:10112000F0F5B2FBF0F605EB8305322303EB051572
:10113000B5FBF1F5B6FBF1F605F0F00505EB06158C
:10114000B2FBF0F6B2FBF0F0B0FBF1F06FF018027A
:10115000504306EB800003EB0010B0FBF1F0216878
:1011600000F00F002844886070BD00000038014086
:101170002DE9F041984617460E460446069D1DE0AF
:10118000681C1BD02DB1FFF731FAA0EB0800A84274
:1011900014D92068C16821F4D071C1602068416908
:1011A00021F001014161202084F8390084F83A00DF
:1011B000002084F838000320BDE8F0812068006832
:1011C00036EA000004D00020B842D9D00020F3E76E
:1011D0000120F9E70148FFF739BD000014000020A5
:1011E000FEE70000014A024900F023B8551200084A
:1011F000000000200907090E002804DB00F1E020B0
:1012000080F80014704700F00F0000F1E02080F833
:10121000141D704702E008C8121F08C1002AFAD145
:1012200070477047002001E001C1121F002AFBD166
:1012300070472DE9F04116460F460446002503E0AD
:101240003946B047641C6D1C20780028F8D1284628
:10125000BDE8F08113B54FF6FF73012269460248DD
:10126000FFF744FE00981CBD1400002086B0FFF775
:10127000CBF9FFF79CFE0027344E009701970297A9
:101280000397B06940F01000B061B06900F0100041
:101290000490B06940F00400B061B0692C4D00F0DA
:1012A00004004FF400540490002221462846FFF722
:1012B00097F90120CDE900400220CDE9027069468E
:1012C0002846FFF79DF8706940F001007061706971
:1012D000002200F00100009011460E20FFF7F2F905
:1012E0000E20FFF7E1F9002211460F20FFF7EAF97F
:1012F0000F20FFF7D9F91848164901604FF416512D
:10130000C0E901170C21C760C0E904718761C7619A
:10131000FFF74AFD08B172B6FEE74FF47A76002275
:1013200021462846FFF75CF90CA0FFF75BFF30462B
:10133000FFF754F8012221462846FFF751F909A08A
:10134000FFF750FF3046FFF749F8E8E7001002408A
:101350000010014000380140140000206C6564203A
:101360006F6E0A006C6564206F66660A00000000FC
:101370000000000000000000010203040607080945
:101380000000000001020304A81300080000002070
:101390001400000014120008BC1300081400002000
:1013A000CC0400002412000800000000010000002E
:0C13B00010000000000000000024F40009
:04000005080000ED02
:00000001FF
